{
  "contractName": "SolnSquareVerifier",
  "abi": [
    {
      "inputs": [
        {
          "internalType": "address",
          "name": "verifierAddress",
          "type": "address"
        },
        {
          "internalType": "string",
          "name": "name",
          "type": "string"
        },
        {
          "internalType": "string",
          "name": "symbol",
          "type": "string"
        }
      ],
      "payable": false,
      "stateMutability": "nonpayable",
      "type": "constructor",
      "signature": "constructor"
    },
    {
      "anonymous": false,
      "inputs": [
        {
          "indexed": true,
          "internalType": "address",
          "name": "owner",
          "type": "address"
        },
        {
          "indexed": true,
          "internalType": "address",
          "name": "approved",
          "type": "address"
        },
        {
          "indexed": true,
          "internalType": "uint256",
          "name": "tokenId",
          "type": "uint256"
        }
      ],
      "name": "Approval",
      "type": "event",
      "signature": "0x8c5be1e5ebec7d5bd14f71427d1e84f3dd0314c0f7b2291e5b200ac8c7c3b925"
    },
    {
      "anonymous": false,
      "inputs": [
        {
          "indexed": true,
          "internalType": "address",
          "name": "owner",
          "type": "address"
        },
        {
          "indexed": true,
          "internalType": "address",
          "name": "operator",
          "type": "address"
        },
        {
          "indexed": false,
          "internalType": "bool",
          "name": "approved",
          "type": "bool"
        }
      ],
      "name": "ApprovalForAll",
      "type": "event",
      "signature": "0x17307eab39ab6107e8899845ad3d59bd9653f200f220920489ca2b5937696c31"
    },
    {
      "anonymous": false,
      "inputs": [
        {
          "indexed": false,
          "internalType": "address",
          "name": "oldOwner",
          "type": "address"
        },
        {
          "indexed": false,
          "internalType": "address",
          "name": "newOwner",
          "type": "address"
        }
      ],
      "name": "OwnershipTransfered",
      "type": "event",
      "signature": "0x0d18b5fd22306e373229b9439188228edca81207d1667f604daf6cef8aa3ee67"
    },
    {
      "anonymous": false,
      "inputs": [
        {
          "indexed": false,
          "internalType": "address",
          "name": "caller",
          "type": "address"
        }
      ],
      "name": "Paused",
      "type": "event",
      "signature": "0x62e78cea01bee320cd4e420270b5ea74000d11b0c9f74754ebdbfc544b05a258"
    },
    {
      "anonymous": false,
      "inputs": [
        {
          "indexed": false,
          "internalType": "uint256",
          "name": "solutionIndex",
          "type": "uint256"
        },
        {
          "indexed": false,
          "internalType": "address",
          "name": "solutionAddrsse",
          "type": "address"
        }
      ],
      "name": "SolutionAdded",
      "type": "event",
      "signature": "0x078793128cefb19aac38a33f9e5df39f67716907f6d747e8065545699e0b2b8d"
    },
    {
      "anonymous": false,
      "inputs": [
        {
          "indexed": true,
          "internalType": "address",
          "name": "from",
          "type": "address"
        },
        {
          "indexed": true,
          "internalType": "address",
          "name": "to",
          "type": "address"
        },
        {
          "indexed": true,
          "internalType": "uint256",
          "name": "tokenId",
          "type": "uint256"
        }
      ],
      "name": "Transfer",
      "type": "event",
      "signature": "0xddf252ad1be2c89b69c2b068fc378daa952ba7f163c4a11628f55a4df523b3ef"
    },
    {
      "anonymous": false,
      "inputs": [
        {
          "indexed": false,
          "internalType": "address",
          "name": "caller",
          "type": "address"
        }
      ],
      "name": "Unpaused",
      "type": "event",
      "signature": "0x5db9ee0a495bf2e6ff9c91a7834c1ba4fdd244a5e8aa4e537bd38aeae4b073aa"
    },
    {
      "constant": false,
      "inputs": [
        {
          "internalType": "bytes32",
          "name": "_myid",
          "type": "bytes32"
        },
        {
          "internalType": "string",
          "name": "_result",
          "type": "string"
        }
      ],
      "name": "__callback",
      "outputs": [],
      "payable": false,
      "stateMutability": "nonpayable",
      "type": "function",
      "signature": "0x27dc297e"
    },
    {
      "constant": false,
      "inputs": [
        {
          "internalType": "bytes32",
          "name": "_myid",
          "type": "bytes32"
        },
        {
          "internalType": "string",
          "name": "_result",
          "type": "string"
        },
        {
          "internalType": "bytes",
          "name": "_proof",
          "type": "bytes"
        }
      ],
      "name": "__callback",
      "outputs": [],
      "payable": false,
      "stateMutability": "nonpayable",
      "type": "function",
      "signature": "0x38bbfa50"
    },
    {
      "constant": false,
      "inputs": [
        {
          "internalType": "address",
          "name": "to",
          "type": "address"
        },
        {
          "internalType": "uint256",
          "name": "tokenId",
          "type": "uint256"
        }
      ],
      "name": "approve",
      "outputs": [],
      "payable": false,
      "stateMutability": "nonpayable",
      "type": "function",
      "signature": "0x095ea7b3"
    },
    {
      "constant": true,
      "inputs": [
        {
          "internalType": "address",
          "name": "owner",
          "type": "address"
        }
      ],
      "name": "balanceOf",
      "outputs": [
        {
          "internalType": "uint256",
          "name": "",
          "type": "uint256"
        }
      ],
      "payable": false,
      "stateMutability": "view",
      "type": "function",
      "signature": "0x70a08231"
    },
    {
      "constant": true,
      "inputs": [],
      "name": "baseTokenURI",
      "outputs": [
        {
          "internalType": "string",
          "name": "",
          "type": "string"
        }
      ],
      "payable": false,
      "stateMutability": "view",
      "type": "function",
      "signature": "0xd547cfb7"
    },
    {
      "constant": true,
      "inputs": [
        {
          "internalType": "uint256",
          "name": "tokenId",
          "type": "uint256"
        }
      ],
      "name": "getApproved",
      "outputs": [
        {
          "internalType": "address",
          "name": "",
          "type": "address"
        }
      ],
      "payable": false,
      "stateMutability": "view",
      "type": "function",
      "signature": "0x081812fc"
    },
    {
      "constant": true,
      "inputs": [
        {
          "internalType": "address",
          "name": "owner",
          "type": "address"
        },
        {
          "internalType": "address",
          "name": "operator",
          "type": "address"
        }
      ],
      "name": "isApprovedForAll",
      "outputs": [
        {
          "internalType": "bool",
          "name": "",
          "type": "bool"
        }
      ],
      "payable": false,
      "stateMutability": "view",
      "type": "function",
      "signature": "0xe985e9c5"
    },
    {
      "constant": false,
      "inputs": [
        {
          "internalType": "address",
          "name": "to",
          "type": "address"
        },
        {
          "internalType": "uint256",
          "name": "tokenId",
          "type": "uint256"
        }
      ],
      "name": "mint",
      "outputs": [
        {
          "internalType": "bool",
          "name": "",
          "type": "bool"
        }
      ],
      "payable": false,
      "stateMutability": "nonpayable",
      "type": "function",
      "signature": "0x40c10f19"
    },
    {
      "constant": true,
      "inputs": [],
      "name": "name",
      "outputs": [
        {
          "internalType": "string",
          "name": "",
          "type": "string"
        }
      ],
      "payable": false,
      "stateMutability": "view",
      "type": "function",
      "signature": "0x06fdde03"
    },
    {
      "constant": true,
      "inputs": [],
      "name": "owner",
      "outputs": [
        {
          "internalType": "address",
          "name": "",
          "type": "address"
        }
      ],
      "payable": false,
      "stateMutability": "view",
      "type": "function",
      "signature": "0x8da5cb5b"
    },
    {
      "constant": true,
      "inputs": [
        {
          "internalType": "uint256",
          "name": "tokenId",
          "type": "uint256"
        }
      ],
      "name": "ownerOf",
      "outputs": [
        {
          "internalType": "address",
          "name": "",
          "type": "address"
        }
      ],
      "payable": false,
      "stateMutability": "view",
      "type": "function",
      "signature": "0x6352211e"
    },
    {
      "constant": false,
      "inputs": [],
      "name": "pause",
      "outputs": [],
      "payable": false,
      "stateMutability": "nonpayable",
      "type": "function",
      "signature": "0x8456cb59"
    },
    {
      "constant": false,
      "inputs": [
        {
          "internalType": "address",
          "name": "from",
          "type": "address"
        },
        {
          "internalType": "address",
          "name": "to",
          "type": "address"
        },
        {
          "internalType": "uint256",
          "name": "tokenId",
          "type": "uint256"
        }
      ],
      "name": "safeTransferFrom",
      "outputs": [],
      "payable": false,
      "stateMutability": "nonpayable",
      "type": "function",
      "signature": "0x42842e0e"
    },
    {
      "constant": false,
      "inputs": [
        {
          "internalType": "address",
          "name": "from",
          "type": "address"
        },
        {
          "internalType": "address",
          "name": "to",
          "type": "address"
        },
        {
          "internalType": "uint256",
          "name": "tokenId",
          "type": "uint256"
        },
        {
          "internalType": "bytes",
          "name": "_data",
          "type": "bytes"
        }
      ],
      "name": "safeTransferFrom",
      "outputs": [],
      "payable": false,
      "stateMutability": "nonpayable",
      "type": "function",
      "signature": "0xb88d4fde"
    },
    {
      "constant": false,
      "inputs": [
        {
          "internalType": "address",
          "name": "to",
          "type": "address"
        },
        {
          "internalType": "bool",
          "name": "approved",
          "type": "bool"
        }
      ],
      "name": "setApprovalForAll",
      "outputs": [],
      "payable": false,
      "stateMutability": "nonpayable",
      "type": "function",
      "signature": "0xa22cb465"
    },
    {
      "constant": false,
      "inputs": [
        {
          "internalType": "bool",
          "name": "newStatus",
          "type": "bool"
        }
      ],
      "name": "setPausable",
      "outputs": [],
      "payable": false,
      "stateMutability": "nonpayable",
      "type": "function",
      "signature": "0x736d323a"
    },
    {
      "constant": true,
      "inputs": [
        {
          "internalType": "bytes4",
          "name": "interfaceId",
          "type": "bytes4"
        }
      ],
      "name": "supportsInterface",
      "outputs": [
        {
          "internalType": "bool",
          "name": "",
          "type": "bool"
        }
      ],
      "payable": false,
      "stateMutability": "view",
      "type": "function",
      "signature": "0x01ffc9a7"
    },
    {
      "constant": true,
      "inputs": [],
      "name": "symbol",
      "outputs": [
        {
          "internalType": "string",
          "name": "",
          "type": "string"
        }
      ],
      "payable": false,
      "stateMutability": "view",
      "type": "function",
      "signature": "0x95d89b41"
    },
    {
      "constant": true,
      "inputs": [
        {
          "internalType": "uint256",
          "name": "index",
          "type": "uint256"
        }
      ],
      "name": "tokenByIndex",
      "outputs": [
        {
          "internalType": "uint256",
          "name": "",
          "type": "uint256"
        }
      ],
      "payable": false,
      "stateMutability": "view",
      "type": "function",
      "signature": "0x4f6ccce7"
    },
    {
      "constant": true,
      "inputs": [
        {
          "internalType": "address",
          "name": "owner",
          "type": "address"
        },
        {
          "internalType": "uint256",
          "name": "index",
          "type": "uint256"
        }
      ],
      "name": "tokenOfOwnerByIndex",
      "outputs": [
        {
          "internalType": "uint256",
          "name": "",
          "type": "uint256"
        }
      ],
      "payable": false,
      "stateMutability": "view",
      "type": "function",
      "signature": "0x2f745c59"
    },
    {
      "constant": true,
      "inputs": [
        {
          "internalType": "uint256",
          "name": "tokenId",
          "type": "uint256"
        }
      ],
      "name": "tokenURI",
      "outputs": [
        {
          "internalType": "string",
          "name": "",
          "type": "string"
        }
      ],
      "payable": false,
      "stateMutability": "view",
      "type": "function",
      "signature": "0xc87b56dd"
    },
    {
      "constant": true,
      "inputs": [],
      "name": "totalSupply",
      "outputs": [
        {
          "internalType": "uint256",
          "name": "",
          "type": "uint256"
        }
      ],
      "payable": false,
      "stateMutability": "view",
      "type": "function",
      "signature": "0x18160ddd"
    },
    {
      "constant": false,
      "inputs": [
        {
          "internalType": "address",
          "name": "from",
          "type": "address"
        },
        {
          "internalType": "address",
          "name": "to",
          "type": "address"
        },
        {
          "internalType": "uint256",
          "name": "tokenId",
          "type": "uint256"
        }
      ],
      "name": "transferFrom",
      "outputs": [],
      "payable": false,
      "stateMutability": "nonpayable",
      "type": "function",
      "signature": "0x23b872dd"
    },
    {
      "constant": false,
      "inputs": [
        {
          "internalType": "address",
          "name": "newOwner",
          "type": "address"
        }
      ],
      "name": "transferOwnership",
      "outputs": [],
      "payable": false,
      "stateMutability": "nonpayable",
      "type": "function",
      "signature": "0xf2fde38b"
    },
    {
      "constant": false,
      "inputs": [],
      "name": "unpause",
      "outputs": [],
      "payable": false,
      "stateMutability": "nonpayable",
      "type": "function",
      "signature": "0x3f4ba83a"
    },
    {
      "constant": true,
      "inputs": [],
      "name": "verifier",
      "outputs": [
        {
          "internalType": "contract SquareVerifier",
          "name": "",
          "type": "address"
        }
      ],
      "payable": false,
      "stateMutability": "view",
      "type": "function",
      "signature": "0x2b7ac3f3"
    },
    {
      "constant": false,
      "inputs": [
        {
          "internalType": "uint256",
          "name": "index",
          "type": "uint256"
        },
        {
          "internalType": "address",
          "name": "addr",
          "type": "address"
        },
        {
          "internalType": "bytes32",
          "name": "key",
          "type": "bytes32"
        }
      ],
      "name": "addSolution",
      "outputs": [],
      "payable": false,
      "stateMutability": "nonpayable",
      "type": "function",
      "signature": "0xb3b72007"
    },
    {
      "constant": false,
      "inputs": [
        {
          "internalType": "address",
          "name": "to",
          "type": "address"
        },
        {
          "internalType": "uint256",
          "name": "tokenId",
          "type": "uint256"
        },
        {
          "internalType": "uint256[2]",
          "name": "a",
          "type": "uint256[2]"
        },
        {
          "internalType": "uint256[2][2]",
          "name": "b",
          "type": "uint256[2][2]"
        },
        {
          "internalType": "uint256[2]",
          "name": "c",
          "type": "uint256[2]"
        },
        {
          "internalType": "uint256[2]",
          "name": "inputs",
          "type": "uint256[2]"
        }
      ],
      "name": "mintNewToken",
      "outputs": [],
      "payable": false,
      "stateMutability": "nonpayable",
      "type": "function",
      "signature": "0xe651db89"
    },
    {
      "constant": true,
      "inputs": [
        {
          "internalType": "uint256[2]",
          "name": "a",
          "type": "uint256[2]"
        },
        {
          "internalType": "uint256[2][2]",
          "name": "b",
          "type": "uint256[2][2]"
        },
        {
          "internalType": "uint256[2]",
          "name": "c",
          "type": "uint256[2]"
        },
        {
          "internalType": "uint256[2]",
          "name": "inputs",
          "type": "uint256[2]"
        }
      ],
      "name": "generateKey",
      "outputs": [
        {
          "internalType": "bytes32",
          "name": "",
          "type": "bytes32"
        }
      ],
      "payable": false,
      "stateMutability": "pure",
      "type": "function",
      "signature": "0x9c9ff41a"
    }
  ],
  "bytecode": "0x60806040523480156200001157600080fd5b50604051620029d6380380620029d6833981810160405260608110156200003757600080fd5b8151602083018051604051929492938301929190846401000000008211156200005f57600080fd5b9083019060208201858111156200007557600080fd5b82516401000000008111828201881017156200009057600080fd5b82525081516020918201929091019080838360005b83811015620000bf578181015183820152602001620000a5565b50505050905090810190601f168015620000ed5780820380516001836020036101000a031916815260200191505b50604052602001805160405193929190846401000000008211156200011157600080fd5b9083019060208201858111156200012757600080fd5b82516401000000008111828201881017156200014257600080fd5b82525081516020918201929091019080838360005b838110156200017157818101518382015260200162000157565b50505050905090810190601f1680156200019f5780820380516001836020036101000a031916815260200191505b50604052505050818181816040518060600160405280603f815260200162002997603f9139600080546001600160a01b0319163317808255604080519283526001600160a01b0391909116602083015280517f0d18b5fd22306e373229b9439188228edca81207d1667f604daf6cef8aa3ee679281900390910190a16000805460ff60a01b191690556040805133815290517f5db9ee0a495bf2e6ff9c91a7834c1ba4fdd244a5e8aa4e537bd38aeae4b073aa9181900360200190a1620002766301ffc9a760e01b6001600160e01b036200033816565b620002916380ac58cd60e01b6001600160e01b036200033816565b620002ac63780e9d6360e01b6001600160e01b036200033816565b8251620002c190600f90602086019062000378565b508151620002d790601090602085019062000378565b508051620002ed90601190602084019062000378565b5062000309635b5e139f60e01b6001600160e01b036200033816565b5050601380546001600160a01b0319166001600160a01b039790971696909617909555506200041d9350505050565b6001600160e01b031980821614156200035057600080fd5b6001600160e01b0319166000908152600160208190526040909120805460ff19169091179055565b828054600181600116156101000203166002900490600052602060002090601f016020900481019282601f10620003bb57805160ff1916838001178555620003eb565b82800160010185558215620003eb579182015b82811115620003eb578251825591602001919060010190620003ce565b50620003f9929150620003fd565b5090565b6200041a91905b80821115620003f9576000815560010162000404565b90565b61256a806200042d6000396000f3fe608060405234801561001057600080fd5b50600436106101cf5760003560e01c80636352211e11610104578063a22cb465116100a2578063d547cfb711610071578063d547cfb71461088d578063e651db8914610895578063e985e9c5146109a3578063f2fde38b146109d1576101cf565b8063a22cb4651461074c578063b3b720071461077a578063b88d4fde146107ac578063c87b56dd14610870576101cf565b80638456cb59116100de5780638456cb591461063b5780638da5cb5b1461064357806395d89b411461064b5780639c9ff41a14610653576101cf565b80636352211e146105d957806370a08231146105f6578063736d323a1461061c576101cf565b80632b7ac3f3116101715780633f4ba83a1161014b5780633f4ba83a1461055257806340c10f191461055a57806342842e0e146105865780634f6ccce7146105bc576101cf565b80632b7ac3f3146103ee5780632f745c59146103f657806338bbfa5014610422576101cf565b8063095ea7b3116101ad578063095ea7b3146102c557806318160ddd146102f357806323b872dd1461030d57806327dc297e14610343576101cf565b806301ffc9a7146101d457806306fdde031461020f578063081812fc1461028c575b600080fd5b6101fb600480360360208110156101ea57600080fd5b50356001600160e01b0319166109f7565b604080519115158252519081900360200190f35b610217610a1a565b6040805160208082528351818301528351919283929083019185019080838360005b83811015610251578181015183820152602001610239565b50505050905090810190601f16801561027e5780820380516001836020036101000a031916815260200191505b509250505060405180910390f35b6102a9600480360360208110156102a257600080fd5b5035610ab1565b604080516001600160a01b039092168252519081900360200190f35b6102f1600480360360408110156102db57600080fd5b506001600160a01b038135169060200135610acc565b005b6102fb610bdd565b60408051918252519081900360200190f35b6102f16004803603606081101561032357600080fd5b506001600160a01b03813581169160208101359091169060400135610be3565b6102f16004803603604081101561035957600080fd5b81359190810190604081016020820135600160201b81111561037a57600080fd5b82018360208201111561038c57600080fd5b803590602001918460018302840111600160201b831117156103ad57600080fd5b91908080601f016020809104026020016040519081016040528093929190818152602001838380828437600092019190915250929550610c06945050505050565b6102a9610c26565b6102fb6004803603604081101561040c57600080fd5b506001600160a01b038135169060200135610c35565b6102f16004803603606081101561043857600080fd5b81359190810190604081016020820135600160201b81111561045957600080fd5b82018360208201111561046b57600080fd5b803590602001918460018302840111600160201b8311171561048c57600080fd5b91908080601f0160208091040260200160405190810160405280939291908181526020018383808284376000920191909152509295949360208101935035915050600160201b8111156104de57600080fd5b8201836020820111156104f057600080fd5b803590602001918460018302840111600160201b8311171561051157600080fd5b91908080601f016020809104026020016040519081016040528093929190818152602001838380828437600092019190915250929550610c01945050505050565b6102f1610c82565b6101fb6004803603604081101561057057600080fd5b506001600160a01b038135169060200135610d68565b6102f16004803603606081101561059c57600080fd5b506001600160a01b03813581169160208101359091169060400135610e26565b6102fb600480360360208110156105d257600080fd5b5035610e41565b6102a9600480360360208110156105ef57600080fd5b5035610e75565b6102fb6004803603602081101561060c57600080fd5b50356001600160a01b0316610e90565b6102f16004803603602081101561063257600080fd5b50351515610eb7565b6102f1610f37565b6102a9611020565b61021761102f565b6102fb600480360361014081101561066a57600080fd5b6040805180820182529183019291818301918390600290839083908082843760009201829052506040805180820190915293969594608081019493509150600290835b828210156106eb57604080518082018252908084028601906002908390839080828437600092019190915250505081526001909101906020016106ad565b5050604080518082018252939695948181019493509150600290839083908082843760009201919091525050604080518082018252929594938181019392509060029083908390808284376000920191909152509194506110909350505050565b6102f16004803603604081101561076257600080fd5b506001600160a01b0381351690602001351515611190565b6102f16004803603606081101561079057600080fd5b508035906001600160a01b036020820135169060400135611214565b6102f1600480360360808110156107c257600080fd5b6001600160a01b03823581169260208101359091169160408201359190810190608081016060820135600160201b8111156107fc57600080fd5b82018360208201111561080e57600080fd5b803590602001918460018302840111600160201b8311171561082f57600080fd5b91908080601f016020809104026020016040519081016040528093929190818152602001838380828437600092019190915250929550611370945050505050565b6102176004803603602081101561088657600080fd5b5035611396565b610217611488565b6102f160048036036101808110156108ac57600080fd5b6040805180820182526001600160a01b03843516936020810135938101929091608083019180840190600290839083908082843760009201829052506040805180820190915293969594608081019493509150600290835b828210156109425760408051808201825290808402860190600290839083908082843760009201919091525050508152600190910190602001610904565b5050604080518082018252939695948181019493509150600290839083908082843760009201919091525050604080518082018252929594938181019392509060029083908390808284376000920191909152509194506114e99350505050565b6101fb600480360360408110156109b957600080fd5b506001600160a01b03813581169160200135166116af565b6102f1600480360360208110156109e757600080fd5b50356001600160a01b03166116dd565b6001600160e01b0319811660009081526001602052604090205460ff165b919050565b600f8054604080516020601f6002600019610100600188161502019095169490940493840181900481028201810190925282815260609390929091830182828015610aa65780601f10610a7b57610100808354040283529160200191610aa6565b820191906000526020600020905b815481529060010190602001808311610a8957829003601f168201915b505050505090505b90565b6000908152600360205260409020546001600160a01b031690565b6000610ad782610e75565b9050806001600160a01b0316836001600160a01b03161415610b2a5760405162461bcd60e51b81526004018080602001828103825260308152602001806124aa6030913960400191505060405180910390fd5b336001600160a01b0382161480610b465750610b4681846116af565b610b815760405162461bcd60e51b81526004018080602001828103825260388152602001806124476038913960400191505060405180910390fd5b60008281526003602052604080822080546001600160a01b0319166001600160a01b0387811691821790925591518593918516917f8c5be1e5ebec7d5bd14f71427d1e84f3dd0314c0f7b2291e5b200ac8c7c3b92591a4505050565b60085490565b610bed33826117d2565b610bf657600080fd5b610c01838383611829565b505050565b604080516000815260208101909152610c229083908390610c01565b5050565b6013546001600160a01b031681565b6000610c4083610e90565b8210610c4b57600080fd5b6001600160a01b0383166000908152600660205260409020805483908110610c6f57fe5b9060005260206000200154905092915050565b6000546001600160a01b03163314610ccf576040805162461bcd60e51b815260206004820152601c60248201526000805160206124da833981519152604482015290519081900360640190fd5b600054600160a01b900460ff16610d26576040805162461bcd60e51b815260206004820152601660248201527518dbdb9d1c9858dd081a5cc81b9bdd081c185d5cd95960521b604482015290519081900360640190fd5b6000805460ff60a01b191690556040805133815290517f5db9ee0a495bf2e6ff9c91a7834c1ba4fdd244a5e8aa4e537bd38aeae4b073aa9181900360200190a1565b600080546001600160a01b03163314610db6576040805162461bcd60e51b815260206004820152601c60248201526000805160206124da833981519152604482015290519081900360640190fd5b600054600160a01b900460ff1615610e0a576040805162461bcd60e51b815260206004820152601260248201527118dbdb9d1c9858dd081a5cc81c185d5cd95960721b604482015290519081900360640190fd5b610e148383611848565b610e1d82611865565b50600192915050565b610c0183838360405180602001604052806000815250611370565b6000610e4b610bdd565b8210610e5657600080fd5b60088281548110610e6357fe5b90600052602060002001549050919050565b6000908152600260205260409020546001600160a01b031690565b6001600160a01b0381166000908152600460205260408120610eb190611979565b92915050565b6000546001600160a01b03163314610f04576040805162461bcd60e51b815260206004820152601c60248201526000805160206124da833981519152604482015290519081900360640190fd5b60005460ff600160a01b90910416151581151514610f34576000805460ff60a01b1916600160a01b831515021790555b50565b6000546001600160a01b03163314610f84576040805162461bcd60e51b815260206004820152601c60248201526000805160206124da833981519152604482015290519081900360640190fd5b600054600160a01b900460ff1615610fd8576040805162461bcd60e51b815260206004820152601260248201527118dbdb9d1c9858dd081a5cc81c185d5cd95960721b604482015290519081900360640190fd5b6000805460ff60a01b1916600160a01b1790556040805133815290517f62e78cea01bee320cd4e420270b5ea74000d11b0c9f74754ebdbfc544b05a2589181900360200190a1565b6000546001600160a01b031690565b60108054604080516020601f6002600019610100600188161502019095169490940493840181900481028201810190925282815260609390929091830182828015610aa65780601f10610a7b57610100808354040283529160200191610aa6565b6000848484846040516020018085600260200280838360005b838110156110c15781810151838201526020016110a9565b505050509050018460026000925b8184101561110f5760208402830151604080838360005b838110156110fe5781810151838201526020016110e6565b5050505090500192600101926110cf565b9250505083600260200280838360005b8381101561113757818101518382015260200161111f565b5050505090500182600260200280838360005b8381101561116257818101518382015260200161114a565b505050509050019450505050506040516020818303038152906040528051906020012090505b949350505050565b6001600160a01b0382163314156111a657600080fd5b3360008181526005602090815260408083206001600160a01b03871680855290835292819020805460ff1916861515908117909155815190815290519293927f17307eab39ab6107e8899845ad3d59bd9653f200f220920489ca2b5937696c31929181900390910190a35050565b6000818152601560205260409020546001600160a01b03161561127e576040805162461bcd60e51b815260206004820152601d60248201527f536f6c7574696f6e20686173206265656e2075736564206265666f7265000000604482015290519081900360640190fd5b61128661234d565b506040805180820182528481526001600160a01b038085166020808401828152601480546001810182556000918252865160029091027fce6d7b5282bd9a3661ae061feed1dbda4e52ab073b1f9285be6e155d9c38d4ec81019190915591517fce6d7b5282bd9a3661ae061feed1dbda4e52ab073b1f9285be6e155d9c38d4ed9092018054929095166001600160a01b031992831617909455868452601582529285902080549093168217909255835187815291820152825191927f078793128cefb19aac38a33f9e5df39f67716907f6d747e8065545699e0b2b8d92918290030190a150505050565b61137b848484610be3565b6113878484848461197d565b61139057600080fd5b50505050565b60606113a182611ab0565b6113e9576040805162461bcd60e51b8152602060048201526014602482015273151bdad95b88191bd95cc81b9bdd08195e1a5cdd60621b604482015290519081900360640190fd5b60008281526012602090815260409182902080548351601f60026000196101006001861615020190931692909204918201849004840281018401909452808452909183018282801561147c5780601f106114515761010080835404028352916020019161147c565b820191906000526020600020905b81548152906001019060200180831161145f57829003601f168201915b50505050509050919050565b60118054604080516020601f6002600019610100600188161502019095169490940493840181900481028201810190925282815260609390929091830182828015610aa65780601f10610a7b57610100808354040283529160200191610aa6565b60006114f785858585611090565b601354604080516301887a7b60e61b81529293506001600160a01b039091169163621e9ec09188918891889188916004909101908190869080838360005b8381101561154d578181015183820152602001611535565b505050509050018460026000925b8184101561159b5760208402830151604080838360005b8381101561158a578181015183820152602001611572565b50505050905001926001019261155b565b9250505083600260200280838360005b838110156115c35781810151838201526020016115ab565b5050505090500182600260200280838360005b838110156115ee5781810151838201526020016115d6565b5050505090500194505050505060206040518083038186803b15801561161357600080fd5b505afa158015611627573d6000803e3d6000fd5b505050506040513d602081101561163d57600080fd5b5051611690576040805162461bcd60e51b815260206004820152601760248201527f536f6c7574696f6e206973206e6f7420636f7272656374000000000000000000604482015290519081900360640190fd5b61169b868883611214565b6116a58787610d68565b5050505050505050565b6001600160a01b03918216600090815260056020908152604080832093909416825291909152205460ff1690565b6000546001600160a01b0316331461172a576040805162461bcd60e51b815260206004820152601c60248201526000805160206124da833981519152604482015290519081900360640190fd5b6001600160a01b03811661176f5760405162461bcd60e51b815260040180806020018281038252602b81526020018061247f602b913960400191505060405180910390fd5b600080546001600160a01b038381166001600160a01b0319831681179093556040805191909216808252602082019390935281517f0d18b5fd22306e373229b9439188228edca81207d1667f604daf6cef8aa3ee67929181900390910190a15050565b6000806117de83610e75565b9050806001600160a01b0316846001600160a01b031614806118195750836001600160a01b031661180e84610ab1565b6001600160a01b0316145b80611188575061118881856116af565b611834838383611acd565b61183e8382611c11565b610c018282611d06565b6118528282611d44565b61185c8282611d06565b610c2281611e84565b61186e81611ab0565b6118b6576040805162461bcd60e51b8152602060048201526014602482015273151bdad95b88191bd95cc81b9bdd08195e1a5cdd60621b604482015290519081900360640190fd5b60118054604080516020601f6002600019610100600188161502019095169490940493840181900481028201810190925282815261195693909290918301828280156119435780601f1061191857610100808354040283529160200191611943565b820191906000526020600020905b81548152906001019060200180831161192657829003601f168201915b505050505061195183611ec8565b611f89565b60008281526012602090815260409091208251610c229391929190910190612364565b5490565b6000611991846001600160a01b0316611fcc565b61199d57506001611188565b604051630a85bd0160e11b815233600482018181526001600160a01b03888116602485015260448401879052608060648501908152865160848601528651600095928a169463150b7a029490938c938b938b939260a4019060208501908083838e5b83811015611a175781810151838201526020016119ff565b50505050905090810190601f168015611a445780820380516001836020036101000a031916815260200191505b5095505050505050602060405180830381600087803b158015611a6657600080fd5b505af1158015611a7a573d6000803e3d6000fd5b505050506040513d6020811015611a9057600080fd5b50516001600160e01b031916630a85bd0160e11b14915050949350505050565b6000908152600260205260409020546001600160a01b0316151590565b6000818152600260205260409020546001600160a01b03848116911614611b255760405162461bcd60e51b815260040180806020018281038252603c8152602001806124fa603c913960400191505060405180910390fd5b6001600160a01b038216611b6a5760405162461bcd60e51b815260040180806020018281038252602a81526020018061241d602a913960400191505060405180910390fd5b611b7381612005565b6001600160a01b0383166000908152600460205260409020611b9490612040565b6001600160a01b0382166000908152600460205260409020611bb590612057565b60008181526002602052604080822080546001600160a01b0319166001600160a01b0386811691821790925591518493918716917fddf252ad1be2c89b69c2b068fc378daa952ba7f163c4a11628f55a4df523b3ef91a4505050565b6001600160a01b038216600090815260066020526040812054611c3b90600163ffffffff61206016565b600083815260076020526040902054909150808214611cd6576001600160a01b0384166000908152600660205260408120805484908110611c7857fe5b906000526020600020015490508060066000876001600160a01b03166001600160a01b031681526020019081526020016000208381548110611cb657fe5b600091825260208083209091019290925591825260079052604090208190555b6001600160a01b0384166000908152600660205260409020805490611cff9060001983016123e2565b5050505050565b6001600160a01b0390911660009081526006602081815260408084208054868652600784529185208290559282526001810183559183529091200155565b6000818152600260205260409020546001600160a01b031615611dae576040805162461bcd60e51b815260206004820152601960248201527f5468697320746f6b656e20616c72656164792065786973747300000000000000604482015290519081900360640190fd5b6001600160a01b038216611e09576040805162461bcd60e51b815260206004820152601a60248201527f676976656e2061646472657373206973206e6f742076616c6964000000000000604482015290519081900360640190fd5b600081815260026020908152604080832080546001600160a01b0319166001600160a01b038716908117909155835260049091529020611e4890612057565b60405181906001600160a01b038416906000907fddf252ad1be2c89b69c2b068fc378daa952ba7f163c4a11628f55a4df523b3ef908290a45050565b600880546000838152600960205260408120829055600182018355919091527ff3f7a9fe364faab93b216da50a3214154f22a0a2b415b23a84c8169e8b636ee30155565b606081611eed57506040805180820190915260018152600360fc1b6020820152610a15565b8160005b8115611f0557600101600a82049150611ef1565b6060816040519080825280601f01601f191660200182016040528015611f32576020820181803883390190505b50905060001982015b8515611f8057600a860660300160f81b82828060019003935081518110611f5e57fe5b60200101906001600160f81b031916908160001a905350600a86049550611f3b565b50949350505050565b6060611fc583836040518060200160405280600081525060405180602001604052806000815250604051806020016040528060008152506120a2565b9392505050565b6000813f7fc5d2460186f7233c927e7db2dcc703c0e500b653ca82273b7bfad8045d85a470818114801590611188575050151592915050565b6000818152600360205260409020546001600160a01b031615610f3457600090815260036020526040902080546001600160a01b0319169055565b805461205390600163ffffffff61206016565b9055565b80546001019055565b6000611fc583836040518060400160405280601e81526020017f536166654d6174683a207375627472616374696f6e206f766572666c6f7700008152506122b6565b6060808690506060869050606086905060608690506060869050606081518351855187518951010101016040519080825280601f01601f1916602001820160405280156120f6576020820181803883390190505b509050806000805b885181101561214f5788818151811061211357fe5b602001015160f81c60f81b83838060010194508151811061213057fe5b60200101906001600160f81b031916908160001a9053506001016120fe565b5060005b87518110156121a45787818151811061216857fe5b602001015160f81c60f81b83838060010194508151811061218557fe5b60200101906001600160f81b031916908160001a905350600101612153565b5060005b86518110156121f9578681815181106121bd57fe5b602001015160f81c60f81b8383806001019450815181106121da57fe5b60200101906001600160f81b031916908160001a9053506001016121a8565b5060005b855181101561224e5785818151811061221257fe5b602001015160f81c60f81b83838060010194508151811061222f57fe5b60200101906001600160f81b031916908160001a9053506001016121fd565b5060005b84518110156122a35784818151811061226757fe5b602001015160f81c60f81b83838060010194508151811061228457fe5b60200101906001600160f81b031916908160001a905350600101612252565b50909d9c50505050505050505050505050565b600081848411156123455760405162461bcd60e51b81526004018080602001828103825283818151815260200191508051906020019080838360005b8381101561230a5781810151838201526020016122f2565b50505050905090810190601f1680156123375780820380516001836020036101000a031916815260200191505b509250505060405180910390fd5b505050900390565b604080518082019091526000808252602082015290565b828054600181600116156101000203166002900490600052602060002090601f016020900481019282601f106123a557805160ff19168380011785556123d2565b828001600101855582156123d2579182015b828111156123d25782518255916020019190600101906123b7565b506123de929150612402565b5090565b815481835581811115610c0157600083815260209020610c019181019083015b610aae91905b808211156123de576000815560010161240856fe676976656e206164647265737320746f207472616e736665727420746f206973206e6f742076616c6964546865206164647265737320746f207472616e736665727420746f206973206e6f7420617070726f76656420627920746865206f776e6572546865206e6577206f776e65722061646472657373206973206e6f742061207265616c2061646472657373546865206164647265737320746f207472616e736665727420746f206973207468652063757272656e74206f776e657243616c6c6572206973206e6f7420636f6e7472616374206f776e657200000000546865206164647265737320746f207472616e73666572742066726f6d206d75737420626520746865206f776e6572206f662074686520746f6b656ea265627a7a72315820566c555fd6e9384cfe835c7ed99d373c327a2ec255be60caade5f5ef8c6eeeab64736f6c6343000511003268747470733a2f2f73332d75732d776573742d322e616d617a6f6e6177732e636f6d2f756461636974792d626c6f636b636861696e2f63617073746f6e652f",
  "source": "pragma solidity >=0.4.21 <0.6.0;\nimport \"./Verifier.sol\";\nimport \"./ERC721Mintable.sol\";\n\n// TODO define a contract call to the zokrates generated solidity contract <Verifier> or <renamedVerifier>\ncontract SquareVerifier is Verifier {\n\n}\n\n// TODO define another contract named SolnSquareVerifier that inherits from your ERC721Mintable class\n\ncontract SolnSquareVerifier is VukaToken {\n\n    SquareVerifier public verifier;\n    \n    // TODO define a solutions struct that can hold an index & an address\n    struct Solution {\n        uint256 solutionIndex;\n        address solutionAddrsse;\n    }\n\n    // TODO define an array of the above struct\n    Solution[] private solutionsArray;\n\n    // TODO define a mapping to store unique solutions submitted\n    mapping (bytes32 => address) private uniqueSolutionMapping;\n\n    // TODO Create an event to emit when a solution is added\n    event SolutionAdded(uint256 solutionIndex, address solutionAddrsse);\n\n    constructor(address verifierAddress, string memory name, string memory symbol) VukaToken(name, symbol) public\n    {\n        verifier = SquareVerifier(verifierAddress);\n    }\n\n    // TODO Create a function to add the solutions to the array and emit the event\n    function addSolution(uint256 index, address addr, bytes32 key) public {\n        require(uniqueSolutionMapping[key] == address(0), 'Solution has been used before');\n        Solution memory solution = Solution ({\n                                                solutionIndex: index,\n                                                solutionAddrsse: addr\n                                            });\n\n        solutionsArray.push(solution);\n        uniqueSolutionMapping[key] = addr;\n        emit SolutionAdded(index, addr);\n\n\n    }\n\n    // TODO Create a function to mint new NFT only after the solution has been verified\n    //  - make sure the solution is unique (has not been used before)\n    //  - make sure you handle metadata as well as tokenSuplly\n    function mintNewToken(address to, uint256 tokenId, uint[2] memory a, uint[2][2] memory b, uint[2] memory c, uint[2] memory inputs) public {\n        \n        // GenerateKey from solution inputs\n        bytes32 key = generateKey(a, b, c, inputs);\n        require(verifier.verifyTx(a, b, c, inputs), 'Solution is not correct');\n        addSolution(tokenId, to, key);\n        super.mint(to, tokenId);\n\n    }\n\n    function generateKey(uint[2] memory a, uint[2][2] memory b, uint[2] memory c, uint[2] memory inputs)  public pure returns(bytes32) {\n        return keccak256(abi.encodePacked(a, b, c, inputs));\n    }\n\n}",
  "sourcePath": "C:/Users/collet tshuma/Downloads/Blockchain-Capstone-master/eth-contracts/contracts/SolnSquareVerifier.sol",
  "compiler": {
    "name": "solc",
    "version": "0.5.17+commit.d19bba13.Emscripten.clang"
  },
  "schemaVersion": "3.0.1",
  "updatedAt": "2022-03-24T10:41:48.994Z",
  "devdoc": {
    "methods": {
      "isApprovedForAll(address,address)": {
        "details": "Tells whether an operator is approved by a given owner",
        "params": {
          "operator": "operator address which you want to query the approval of",
          "owner": "owner address which you want to query the approval of"
        },
        "return": "bool whether the given operator is approved by the given owner"
      },
      "setApprovalForAll(address,bool)": {
        "details": "Sets or unsets the approval of a given operator An operator is allowed to transfer all tokens of the sender on their behalf",
        "params": {
          "approved": "representing the status of the approval to be set",
          "to": "operator address to set the approval"
        }
      },
      "supportsInterface(bytes4)": {
        "details": "implement supportsInterface(bytes4) using a lookup table"
      },
      "tokenByIndex(uint256)": {
        "details": "Gets the token ID at a given index of all the tokens in this contract Reverts if the index is greater or equal to the total number of tokens",
        "params": {
          "index": "uint256 representing the index to be accessed of the tokens list"
        },
        "return": "uint256 token ID at the given index of the tokens list"
      },
      "tokenOfOwnerByIndex(address,uint256)": {
        "details": "Gets the token ID at a given index of the tokens list of the requested owner",
        "params": {
          "index": "uint256 representing the index to be accessed of the requested tokens list",
          "owner": "address owning the tokens list to be accessed"
        },
        "return": "uint256 token ID at the given index of the tokens list owned by the requested address"
      },
      "totalSupply()": {
        "details": "Gets the total amount of tokens stored by the contract",
        "return": "uint256 representing the total amount of tokens"
      }
    }
  },
  "userdoc": {
    "methods": {}
  }
}